:100000000200553200000000000000320000000035
:10001000000000320000000000000032000000007C
:100020000000003200000000000000000000C39546
:10003000F02212002E60044002E422740122C0E08B
:1000400074201470FDD0E0002278107903D8FED916
:10005000FCD5E0F522787FE4F6D8FD758125752082
:1000600000C2B0C2B1C293C292C2B2C2B3C2B4C2E1
:10007000B5D2B7D294D205C290C295C296C2977437
:1000800064114931A5113E11D0A20592045003021A
:1000900000A7A2B7920450030200A7C294315E7475
:1000A0000A1149D290D205A205920440030200C968
:1000B000A2B7920440030200C9D29431A5113E11A7
:1000C000D0113E3117C290C205020089C2AF80FE36
:1000D00090022985822385832475220175F012E51B
:1000E0002211327003020114852382852483782132
:1000F000E493A3858223858324F6E521B40102805D
:100100000302010931EC02010B31F80522E52260FE
:10011000030200DC31FF22900209858223858324BB
:1001200075220175F010E5221132700302015B8522
:1001300023828524837821E493A3858223858324E5
:10014000F6E521B40102800302015031EC020152B4
:1001500031F80522E522600302012331FF229002DB
:100160001985822385832475220175F010E52211FB
:100170003270030201A28523828524837821E493CF
:10018000A3858223858324F6E521B401028003023E
:10019000019731EC02019931F80522E52260030252
:1001A000016A31FF2290023B8582238583247522D8
:1001B0000175F010E522113270030201E9852382F6
:1001C0008524837821E493A3858223858324F6E51F
:1001D00021B4010280030201DE31EC0201E031F8BA
:1001E0000522E52260030201B131FF22D29600D23E
:1001F0009700C29700C29622D29700C297002200B1
:10020000D29500C29500C2962201000001000100B3
:1002100000000101010000010001000101000100D6
:1002200001000000000000010000000000000100CB
:1002300000000000000000000001010001010101B8
:1002400001010000000101010100010000000000A7
:00000001FF
